:020000040800F2
:1000000018A00020096E0008850600088706000871
:100010008B0600088F060008930600080000000009
:10002000000000000000000000000000970600082B
:1000300099060008000000009B0600089D060008C5
:10004000236E0008236E0008236E0008236E00084C
:10005000236E0008236E0008236E0008236E00083C
:10006000236E0008236E0008236E0008236E00082C
:10007000236E0008236E0008236E0008236E00081C
:10008000236E0008236E0008236E0008236E00080C
:10009000236E0008236E0008236E0008236E0008FC
:1000A000236E0008236E0008236E0008236E0008EC
:1000B000236E0008236E00085D930008236E00087D
:1000C000236E0008236E0008236E0008236E0008CC
:1000D000236E00087F6D0008236E0008236E000861
:1000E000236E0008236E0008236E0008236E0008AC
:1000F000236E0008236E0008236E0008236E00089C
:10010000236E0008236E0008236E0008236E00088B
:10011000236E0008236E0008236E0008236E00087B
:10012000236E0008236E0008236E0008236E00086B
:1001300000F002F800F06BF80AA090E8000C82448E
:100140008344AAF10107DA4501D100F060F8AFF26B
:10015000090EBAE80F0013F0010F18BFFB1A43F0A5
:1001600001031847580A0100780A01000A444FF0B9
:10017000000C10F8013B13F0070408BF10F8014B06
:100180001D1108BF10F8015B641E05D010F8016B4B
:10019000641E01F8016BF9D113F0080F1EBF10F8AF
:1001A000014BAD1C0C1B09D16D1E58BF01F801CBD2
:1001B000FAD505E014F8016B01F8016B6D1EF9D555
:1001C0009142D6D37047000000230024002500266A
:1001D000103A28BF78C1FBD8520728BF30C148BFAA
:1001E0000B60704764290EF0B38075290EF0B08063
:1001F00078290EF0E98063290EF0C88273290EF089
:10020000CD82002070471FB51FBD10B510BD0EF088
:10021000F7FA1146FFF7F7FF00F008F80EF015FBAC
:1002200003B4FFF7F2FF03BC06F04CFD1FB506F068
:1002300043FD06F0D9FC4FF4165006F051FD01F0D5
:1002400084FF00F01BFB05F093FFC2484168482083
:10025000884708F094FC09F0FDFDBF4901220868B9
:10026000BEA10BF000FEBC4901224868BCA10BF006
:10027000FAFD79E000BF4FF6FF7001F014FF4FF474
:100280007840B8490880B8A010210B46C822CDE9B3
:10029000001032213C2005F02BFF19E0B5A0102101
:1002A0000B46C822CDE9001046213C2005F020FF76
:1002B000C82006F0D5FC4FF6FF7056234FF482722B
:1002C000462100903C2005F04AFCC82006F0C8FCFE
:1002D00006F042FB0028E1D1AAA010210B46C8225B
:1002E000CDE9001046213C2005F002FFA8A0102116
:1002F0000B46C822CDE900105A213C2005F0F8FE3B
:1003000010226E2114200DF064FD074618E0A5A010
:1003100010210B46C822CDE900106E213C2005F0CB
:10032000E7FEC82006F09CFC4FF6FF707E23DC221F
:100330006E210090142005F012FCC82006F090FCFD
:10034000002FE4D19CA010210B46C822CDE900105B
:100350006E213C2005F0CCFE40F2DC5006F080FC23
:100360004FF6FF7001F09FFE0DF0D8FD002881D1FF
:100370004FF478407B4908800020102194A20B465E
:10038000CDE900210290C82232213C200DF0E3FE8D
:100390000020102193A20B46CDE900210290C82233
:1003A00046213C200DF0D7FE0020102191A20B46E3
:1003B000CDE900210290C8225A213C200DF0CBFE4D
:1003C0000020102190A20B46CDE900210290C82206
:1003D0006E213C200DF0BFFE002010218EA20B46A6
:1003E000CDE900210290C82282213C200DF0B3FE0D
:1003F0001F205C490880002010218BA20B46CDE90C
:1004000000210290C82296213C200DF0A4FE00207D
:10041000102188A20B46CDE900210290C822AA2112
:100420003C200DF098FE0020102185A20B46CDE95E
:1004300000210290C822BE213C200DF08CFE00203D
:10044000182182A20B46CDE900210290C822DC21AE
:100450003C200DF080FE002010217FA20B46CDE94C
:1004600000210290C822F4213C200DF074FE0020EF
:100470000C217EA20B46CDE900210290C8224FF448
:1004800082713C200DF067FE63E0002681255EE06E
:100490008DF80C50102003232A46962100909420BA
:1004A00005F07DFD40244EE07F2C00D148E0761C15
:1004B000102003232246AA210090942005F06FFD0E
:1004C000102005233246BE210090942005F067FDE0
:1004D0008DF80D400020182303AADC210090C020D5
:1004E0000DF0DAFD0020102303AAF4210090CC20A7
:1004F0000DF0D2FD00200C2303AA4FF4827100906E
:10050000A8200DF0C9FD4FF0C80809E0012006F051
:10051000A7FB002005F055FE0746012F00D1AAE6F3
:100520005FEA0800A8F1010101F0FF08EED154488C
:10053000006808B9012000E000205149086000BFB0
:1005400004F10100C4B2FE2CAEDB681CC5B2FF2D65
:100550009EDB9AE7400100206C030020303A000047
:10056000313A0000140000206D696E692053544D2B
:100570003332000053442043617264204661696C49
:100580006564210053442043617264204F4B000096
:10059000466F6E74205570646174696E672E2E2EDE
:1005A00000000000466F6E74205570646174652011
:1005B0004661696C65642100466F6E7420557064F5
:1005C00061746520537563636573732100000000D7
:1005D0004D696E692053544D3332BFAAB7A2B0E5BE
:1005E0000000000047424BD7D6BFE2B2E2CAD4B304
:1005F000CCD0F200D5FDB5E3D4ADD7D340414C49C2
:10060000454E54454B00000032303134C4EA31D4F9
:10061000C233C8D500000000B0B44B4559302CB8E7
:10062000FCD0C2D7D6BFE200C4DAC2EBB8DFD7D65F
:10063000BDDA3A00C4DAC2EBB5CDD7D6BDDA3A009E
:10064000BABAD7D6BCC6CAFDC6F73A00B6D4D3A646
:10065000BABAD7D6CEAA3A00B6D4D3A6BABAD7D6A3
:100660002831362A313629CEAA3A0000B6D4D3A68C
:10067000BABAD7D62831322A313229CEAA3A000066
:10068000A0012142704700BFFEE700BFFEE700BFA8
:10069000FEE700BFFEE770477047704770470000F5
:1006A0000CB50020019000906B48006840F4803049
:1006B0006949086000BF6848006800F40030009095
:1006C0000198401C0190009818B90198B0F5A06FEE
:1006D000F1D16148006810F4003F02D00120009081
:1006E00001E0002000900098012842D15B4800689A
:1006F00040F01000594908600846006820F00300E7
:1007000008600846006840F00200086052484068EF
:10071000514948600846406848600846406840F4CF
:10072000806048600846406820F47C1048600846B5
:10073000406840F4E81048600846006840F0807067
:10074000086000BF4448006810F0007FFAD04248BB
:10075000406820F00300404948600846406840F087
:100760000200486000BF3C48406800F00C000828C8
:10077000F9D10CBD10B5FFF793FF10BD10B5364889
:10078000006840F001003449086008464068344978
:1007900008403149486008460068324908402E49FF
:1007A00008600846006820F4802008600846406819
:1007B00020F4FE0048604FF41F008860FFF7DAFF66
:1007C0004FF000602849086010BD10B500210020DE
:1007D0000022214B5B6803F00C0121B1042906D0F3
:1007E000082928D107E0214B214C236027E01F4B2B
:1007F0001F4C236023E0184B5B6803F47010164B0A
:100800005B6803F48032022303EB904022B9194B5A
:100810004343174C23600DE00F4B5B6813F4003F1C
:1008200004D0144B4343124C236003E00F4B43436B
:100830000F4C236003E00D4B0D4C236000BF00BF45
:10084000054B5B68C3F303130B4CE15C084B1B685F
:10085000CB40074C236010BD001002400020024036
:100860000000FFF8FFFFF6FE08ED00E000127A003E
:100870000000002000093D000400002008B501210F
:10088000242006F0F7FD4FF48070ADF80000102032
:100890008DF8030003208DF802006946094806F030
:1008A00033FB4FF48071074806F0D9FB0420ADF804
:1008B00000006946044806F027FB0421024806F0C0
:1008C000CEFB08BD000801400014014010B50446ED
:1008D0004FF48071FE4806F0C4FB4FF40071FC48F1
:1008E00006F0BFFB2146FB4806F0C2FB8021F8481A
:1008F00006F0B7FB8021F64806F0B1FB4FF400711B
:10090000F34806F0ACFB10BD10B504464FF48071FF
:10091000EF4806F0A4FB4FF40071ED4806F0A1FB90
:100920002146EC4806F0A4FB8021E94806F099FB3B
:100930008021E74806F093FB4FF40071E44806F08D
:100940008EFB10BD10B54FF08830E2490860091DDC
:1009500008600020DF490C3108608915DC4806F08A
:100960007EFB4FF40071DA4806F07BFB4021D8484B
:1009700006F077FBD8488088A0F50941893902D173
:10098000022006F04AF9D34806F058FB04464021FD
:10099000CF4806F064FB4FF40071CD4806F05FFBD2
:1009A0004FF03330CB490860091D08604FF6FF70E7
:1009B000C8490C310860204610BD70B504460D468C
:1009C0002046FFF783FF4FF48071C14806F047FBD4
:1009D0004FF40071BE4806F044FB2946BD4806F0BE
:1009E00047FB8021BA4806F03CFB8021B84806F05E
:1009F00036FB4FF40071B64806F031FB70BD10B500
:100A000004462046FFF762FFFFF79CFF10BD10B5BC
:100A1000B1490889FFF75AFF10BD10B504464FF4DD
:100A20008071AB4806F01BFB4FF40071A84806F03C
:100A300018FB2146A74806F01BFB8021A44806F0BE
:100A400010FB8021A24806F00AFB4FF40071A04879
:100A500006F005FB10BD30B5014601F01F04C1F3DF
:100A60004513CA0AE50205EB43151544A8B230BD8B
:100A700070B504460D4698488088A0F51341413969
:100A800005D095488088A0F5A641103975D19249C6
:100A90004889FFF71BFF4FF480718D4806F0DFFA9D
:100AA0004FF400718A4806F0DCFA2112894806F0FA
:100AB000DFFA8021864806F0D4FA8021844806F0C7
:100AC000CEFA4FF40071824806F0C9FA4FF48071F3
:100AD0007F4806F0C4FA4FF400717D4806F0C1FA71
:100AE000E1B27C4806F0C4FA8021794806F0B9FAF0
:100AF0008021774806F0B3FA4FF40071744806F08D
:100B0000AEFA75498889FFF7E1FE4FF480717048AD
:100B100006F0A5FA4FF400716D4806F0A2FA29120A
:100B20006C4806F0A5FA8021694806F09AFA8021FF
:100B3000674806F094FA4FF40071654806F08FFAA2
:100B40004FF48071624806F08AFA4FF400716048F1
:100B500006F087FAE9B25F4806F08AFA80215C481D
:100B600006F07FFA80215A4806F079FA4FF40071B6
:100B7000574806F074FA28E1FFE757488088A0F547
:100B8000D04104397ED154488079012804D152489B
:100B90000088401E001B84B24F494889FFF796FE2B
:100BA0004FF480714A4806F05AFA4FF400714848F1
:100BB00006F057FA2112474806F05AFA80214448B5
:100BC00006F04FFA8021424806F049FA4FF40071CE
:100BD0003F4806F044FA4FF480713D4806F03FFA72
:100BE0004FF400713A4806F03CFAE1B2394806F099
:100BF0003FFA8021364806F034FA8021344806F066
:100C00002EFA4FF40071324806F029FA32498889E9
:100C1000FFF75CFE4FF480712D4806F020FA4FF488
:100C200000712B4806F01DFA29122A4806F020FA16
:100C30008021274806F015FA8021254806F00FFA92
:100C40004FF40071224806F00AFA4FF480712048F0
:100C500006F005FA4FF400711D4806F002FAE9B2F9
:100C60001C4806F005FA8021194806F0FAF980219F
:100C7000174806F0F4F94FF40071154806F0EFF943
:100C8000A3E0FFE714488088A0F5AA4110397CD181
:100C900011494889FFF71AFE4FF480710C4806F09D
:100CA000DEF94FF400710A4806F0DBF92112094819
:100CB00006F0DEF98021064806F0D3F980210448C9
:100CC00006F0CDF94FF40071014806F0C8F905E0CF
:100CD00000100140000C0140A8030020F949498997
:100CE000491C88B2FFF7F2FD4FF48071F64806F018
:100CF000B6F94FF40071F44806F0B3F9E1B2F348E5
:100D000006F0B6F98021F04806F0ABF98021EE48F4
:100D100006F0A5F94FF40071EB4806F0A0F9E94997
:100D20008889FFF7D3FD4FF48071E74806F097F903
:100D30004FF40071E44806F094F92912E34806F0F4
:100D400097F98021E04806F08CF98021DE4806F012
:100D500086F94FF40071DC4806F081F9D949898998
:100D6000491C88B2FFF7B2FD4FF48071D64806F0F7
:100D700076F94FF40071D44806F073F9E9B2D3481C
:100D800006F076F98021D04800E00BE006F069F922
:100D90008021CD4806F063F94FF40071CA4806F08F
:100DA0005EF912E0C7488079012804D1C54800885F
:100DB000401E001B84B2C34948892146FFF7FDFD50
:100DC000C04988892946FFF7F8FD70BD2DE9F0413B
:100DD00005460E46BB480088A84203DDB948408856
:100DE000B04202DC0020BDE8F08131462846FFF722
:100DF0003FFEB4488088A0F5134141390BD0B1487B
:100E00008088A0F5D041043905D0AE488088A0F58F
:100E1000A641103903D12E20FFF758FD0DE0A94857
:100E20008088A0F5AA41103904D14FF43850FFF75B
:100E30004DFD02E02220FFF749FD4FF08830A34925
:100E40000860091D08604FF6FF70A0490C3108606A
:100E500089159D4806F003F94FF400719A4806F091
:100E600000F94021984806F0FCF8012005F0D5FE75
:100E70004021954806F0F3F84021934806F0F1F838
:100E8000012005F0CAFE914806F0D8F8044640213A
:100E90008D4806F0E4F88B488088A0F5134141396D
:100EA0000BD088488088A0F5A641103905D0854828
:100EB0008088A0F5AA41103911D14021824806F05E
:100EC000D0F8824806F0BAF8804640217E4806F005
:100ED000C6F8E7B24FF6FF7000EA072711E079483D
:100EE0008088A0F5D04104390BD14021764806F026
:100EF000B8F84021744806F0B2F8744806F09EF83D
:100F000004464FF40071704806F0A9F84FF03330F2
:100F10006E490860091D08604FF6FF706B490C317F
:100F2000086068488088A0F51341253917D06548C6
:100F30008088A0F58A41353911D062488088A0F5B3
:100F40008A4131390BD05F488088A0F50941893941
:100F500005D05C488088A0F53541053901D120468F
:100F600041E758488088A0F5134141390BD05548D6
:100F70008088A0F5A641103905D052488088A0F598
:100F8000AA41103907D1E012C002B91240EA41105B
:100F900040EAE82027E72046FFF75DFD23E710B58C
:100FA00048488088A0F5134141390BD045488088D6
:100FB000A0F5D041043905D042488088A0F5A6416B
:100FC000103903D12920FFF781FC0FE03D488088CC
:100FD000A0F5AA41103904D14FF42450FFF776FC54
:100FE00004E040F273110720FFF7E7FC10BD10B5D5
:100FF00034488088A0F5134141390BD031488088AE
:10100000A0F5D041043905D02E488088A0F5A6412E
:10101000103903D12820FFF759FC0EE029488088B9
:10102000A0F5AA41103904D14FF42050FFF74EFC2F
:1010300003E000210720FFF7C0FC10BD2DE9F041BF
:101040000546002400271F48807901281ED11D482D
:101050008088A0F5D041043918D0082D15D2DFE8DA
:1010600005F00406080A0C0E101206250DE00725EF
:101070000BE0042509E0052507E0012505E0002532
:1010800003E0032501E0022500BF00BF0D48808872
:10109000A0F51341413911D00A488088A0F5D0410C
:1010A00004390BD007488088A0F5A641103905D037
:1010B00004488088A0F5AA4110397DD1082D24D29A
:1010C00006E00000A803002000100140000C0140D1
:1010D000DFE805F00406090C0F12151800BF14E034
:1010E00044F0800411E044F040040EE044F0C004F9
:1010F0000BE044F0200408E044F0600405E044F014
:10110000A00402E044F0E00400BF00BFFE48808875
:10111000A0F5AA41103902D14FF4585700E0362704
:10112000F9488088A0F5A641103907D0F648808894
:10113000A0F5AA41103901D044F00804F248808893
:10114000A0F5D041043901D144F0020421463846CB
:10115000FFF733FC14F0200F03D1EB48807901280E
:101160000DD1E9480088E8494988884214DAE64800
:1011700006884088E4490880084646800CE0E2483A
:101180000088E1494988884206DDDF4806884088B2
:10119000DD49088008464680DB488088A0F5AA41E2
:1011A00010397CD1D8494889FFF790FB4FF4807102
:1011B000D64805F054FF00E002E24FF40071D34836
:1011C00005F04FFF0021D24805F052FF8021CF48A3
:1011D00005F047FF8021CD4805F041FF4FF4007135
:1011E000CA4805F03CFFC8494989491C88B2FFF745
:1011F0006DFB4FF48071C54805F031FF4FF400716D
:10120000C24805F02EFF0021C14805F031FF8021C2
:10121000BE4805F026FF8021BC4805F020FF4FF4B2
:101220000071BA4805F01BFFB7494989891C88B28B
:10123000FFF74CFB4FF48071B44805F010FF4FF4FA
:101240000071B24805F00DFFAF480088401EC0F3A2
:101250000F21AF4805F00CFF8021AC4805F001FFDD
:101260008021AA4805F0FBFE4FF40071A74805F065
:10127000F6FEA5494989C91C88B2FFF727FB4FF440
:101280008071A24805F0EBFE4FF400719F4805F015
:10129000E8FE9D480078401EC1B29D4800E098E0FD
:1012A00005F0E6FE8021994805F0DBFE8021974895
:1012B00005F0D5FE4FF40071944805F0D0FE924938
:1012C0008889FFF703FB4FF48071904805F0C7FE53
:1012D0004FF400718D4805F0C4FE00218C4805F0E4
:1012E000C7FE8021894805F0BCFE8021874805F0B3
:1012F000B6FE4FF40071854805F0B1FE8249898938
:10130000491C88B2FFF7E2FA4FF480717F4805F07C
:10131000A6FE4FF400717D4805F0A3FE00217C4835
:1013200005F0A6FE8021794805F09BFE80217748D4
:1013300005F095FE4FF40071744805F090FE724977
:101340008989891C88B2FFF7C1FA4FF480716F4810
:1013500005F085FE4FF400716C4805F082FE6A4886
:101360004088401EC0F30F21694805F081FE8021AE
:10137000664805F076FE8021644805F070FE4FF463
:101380000071624805F06BFE5F498989C91C88B20B
:10139000FFF79CFA4FF480715C4805F060FE4FF453
:1013A00000715A4805F05DFE57488078401EC1B272
:1013B000574805F05DFE8021544805F052FE80211B
:1013C000524805F04CFE4FF40071504805F047FEBE
:1013D00028E14D494889FFF779FA4FF480714B486D
:1013E00005F03DFE4FF40071484805F03AFE00213B
:1013F000474805F03DFE8021444805F032FE80213B
:10140000424805F02CFE4FF40071404805F027FEDD
:101410004FF480713D4805F022FE4FF400713B48C7
:1014200005F01FFE00213A4805F022FE80213748D2
:1014300005F017FE8021354805F011FE4FF40071CC
:10144000324805F00CFE4FF48071304805F007FE7D
:101450004FF400712D4805F004FE2B480088401E13
:10146000C0F30F212A4805F003FE8021274805F02C
:10147000F8FD8021254805F0F2FD4FF40071234866
:1014800005F0EDFD4FF48071204805F0E8FD4FF4C4
:1014900000711E4805F0E5FD1B480078401EC1B2F2
:1014A0001B4805F0E5FD8021184805F0DAFD802194
:1014B000164805F0D4FD4FF40071144805F0CFFD37
:1014C00011498889FFF702FA4FF480710F4805F03F
:1014D000C6FD4FF400710D4805F0C3FD00210C4816
:1014E00005F0C6FD8021094805F0BBFD80210748B5
:1014F00005F0B5FD4FF40071044805F0B0FD4FF460
:101500008071024806E00000A8030020001001409E
:10151000000C014005F0A3FD4FF40071FE4805F0FA
:10152000A0FD0021FD4805F0A3FD8021FA4805F04B
:1015300098FD8021F84805F092FD4FF40071F648BF
:1015400005F08DFD4FF48071F34805F088FD4FF4F0
:101550000071F14805F085FDF1484088401EC0F358
:101560000F21EE4805F084FD8021EB4805F079FD60
:101570008021E94805F073FD4FF40071E64805F05D
:101580006EFD4FF48071E44805F069FD4FF4007181
:10159000E14805F066FDE2488078401EC1B2DF48B0
:1015A00005F066FD8021DC4805F05BFD8021DA480E
:1015B00005F055FD4FF40071D74805F050FD31E0BE
:1015C000082D1CD2DFE805F004070A0D0F121518CC
:1015D00044F0300413E044F0100410E044F0200420
:1015E0000DE000BF0BE044F0380408E044F02804AC
:1015F00005E044F0180402E044F0080400BF00BF16
:10160000C7488088A0F50941893904D1112746F2DD
:101610004000044302E0032744F480542146384646
:10162000FFF7CBF9BDE8F08170B504460D462946B9
:101630002046FFF71DFAFFF7EAF94FF48071B6482C
:1016400005F00DFD4FF40071B34805F00AFDB548F3
:101650000188B24805F00CFD8021AF4805F001FD7E
:101660008021AD4805F0FBFC4FF40071AA4805F05D
:10167000F6FC70BD70B504460D461646A848808835
:10168000A0F51341413905D0A5488088A0F5A641B1
:10169000103975D1A2494889FFF718F94FF48071C4
:1016A0009D4805F0DCFC4FF400719B4805F0D9FC27
:1016B00021129A4805F0DCFC8021974805F0D1FC06
:1016C0008021954805F0CBFC4FF40071924805F05D
:1016D000C6FC4FF48071904805F0C1FC4FF40071D6
:1016E0008D4805F0BEFCE1B28C4805F0C1FC8021BC
:1016F000894805F0B6FC8021874805F0B0FC4FF41E
:101700000071854805F0ABFC85498889FFF7DEF854
:101710004FF48071804805F0A2FC4FF400717E48C0
:1017200005F09FFC29127D4805F0A2FC80217A4833
:1017300005F097FC8021784805F091FC4FF400718A
:10174000754805F08CFC4FF48071734805F087FCF8
:101750004FF40071704805F084FCE9B26F4805F061
:1017600087FC80216C4805F07CFC80216A4805F0EC
:1017700076FC4FF40071684805F071FC2BE1FFE73F
:1017800067488088A0F5AA4110397DD1644948890D
:10179000FFF79CF84FF480715F4805F060FC4FF450
:1017A00000715D4805F05DFC21125C4805F060FCAD
:1017B0008021594805F055FC8021574805F04FFC21
:1017C0004FF40071544805F04AFC55494989491CB9
:1017D00088B2FFF77BF84FF480714F4805F03FFC6B
:1017E0004FF400714C4805F03CFCE1B24B4805F069
:1017F0003FFC8021484805F034FC8021464805F034
:101800002EFC4FF40071444805F029FC44498889B6
:10181000FFF75CF84FF480713F4805F020FC4FF46F
:1018200000713D4805F01DFC29123C4805F020FCE4
:101830008021394805F015FC8021374805F00FFC60
:101840004FF40071344805F00AFC35498989491C78
:1018500088B2FFF73BF84FF480712F4805F0FFFB8B
:101860004FF400712C4805F0FCFBE9B22B4805F061
:10187000FFFB8021284805F0F4FB8021264805F075
:10188000EEFB4FF4007100E003E0234805F0E7FBB6
:10189000A1E023488088A0F5D04104397ED12048BA
:1018A0008079012804D11E480088401E001B84B2A4
:1018B0001B494889FFF70AF84FF48071164805F074
:1018C000CEFB4FF40071144805F0CBFB21121348F6
:1018D00005F0CEFB8021104805F0C3FB80210E48A7
:1018E00005F0BDFB4FF400710B4805F0B8FB4FF459
:1018F0008071094805F0B3FB4FF40071064805F00C
:10190000B0FBE1B2054805F0B3FB8021024805F0C9
:10191000A8FB8021004807E000100140000C0140B6
:10192000A80300201400002005F099FB4FF400717B
:10193000FD4805F094FBFD498889FEF7C7FF4FF489
:101940008071F94805F08BFB4FF40071F64805F003
:1019500088FB2912F64805F08BFB8021F24805F040
:1019600080FB8021F04805F07AFB4FF40071EE48CF
:1019700005F075FB4FF48071EB4805F070FB4FF4F8
:101980000071E94805F06DFBE9B2E94805F070FB2C
:101990008021E54805F065FB802100E008E0E24891
:1019A00005F05DFB4FF40071DF4805F058FB12E0D5
:1019B000DE488079012804D1DC480088401E001BE5
:1019C00084B2DA4948892146FEF7F7FFD74988896A
:1019D0002946FEF7F2FF4FF48071D34805F041FB32
:1019E0004FF40071D04805F03CFBD0480189D04845
:1019F00005F03EFB8021CC4805F033FB8021CA482E
:101A000005F02DFB4FF40071C74805F028FB4FF49B
:101A10008071C54805F023FB4FF40071C24805F002
:101A200020FB3146C24805F023FB8021BE4805F06B
:101A300018FB8021BC4805F012FB4FF40071BA4836
:101A400005F00DFB70BD10B50446002C60D1B74900
:101A50008871F02008804FF4A07048800846808884
:101A6000A0F5134141390BD0B0488088A0F5D04192
:101A7000043905D0AD488088A0F5A64110391AD1A7
:101A80002C20AA4908812A2048812B2088810846D9
:101A90008088A0F5D041043905D0A4488088A0F5FD
:101AA000A641103906D14FF4A070A04908804FF428
:101AB000F070488095E09D488088A0F509418939FB
:101AC00007D12220994908814E2048814F208881E2
:101AD00087E096488088A0F5AA41103910D14FF4CC
:101AE0003050924908814FF4285048814FF42C50CF
:101AF00088814FF4F07008804FF44870488070E09F
:101B000022208A490881202048812120888168E09C
:101B10000120864988714FF4A0700880F020488029
:101B200008468088A0F51341413905D07F48808858
:101B3000A0F5A641103907D12C207C4908812A2024
:101B400048812B20888139E078488088A0F5D041F1
:101B5000043907D12C20754908812B2048812A207F
:101B600088812BE071488088A0F50941893907D127
:101B700022206E4908814F2048814E2088811DE037
:101B80006A488088A0F5AA41103910D14FF430502E
:101B9000664908814FF4285048814FF42C508881C1
:101BA0004FF4487008804FF4F070488006E022201F
:101BB0005E49088121204881202088815B488088F7
:101BC000A0F5D041043905D058488088A0F5A64139
:101BD000103906D14FF4F070544908804FF4A070CA
:101BE00048800020FFF72AFA10BD2DE9FF5F044668
:101BF0000D4616461F46A019401E86B2E819401E23
:101C000087B24A488088A0F5134141390BD0474834
:101C10008088A0F5A641103905D044488088A0F5F9
:101C2000D04104397ED141494889FEF74FFE4FF437
:101C300080713D4805F013FA4FF400713A4805F001
:101C400010FA21123A4805F013FA8021364805F0BF
:101C500008FA8021344805F002FA4FF40071324846
:101C600005F0FDF94FF480712F4805F0F8F94FF4B5
:101C700000712D4805F0F5F9E1B22D4805F0F8F9AD
:101C80008021294805F0EDF98021274805F0E7F982
:101C90004FF40071244805F0E2F94FF480712248B6
:101CA00005F0DDF94FF400711F4805F0DAF9311243
:101CB0001F4805F0DDF980211B4805F0D2F980218D
:101CC000194805F0CCF94FF40071174805F0C7F931
:101CD0004FF48071144805F0C2F94FF400711248B6
:101CE00005F0BFF9F1B2124805F0C2F980210E48A3
:101CF00005F0B7F980210C4805F0B1F94FF40071F7
:101D0000094805F0ACF909498889FEF7DFFD4FF471
:101D10008071054805F0A3F94FF40071024805F001
:101D2000A0F907E069E0000000100140A8030020CE
:101D3000000C01402912FE4805F09AF98021FD4867
:101D400005F08FF98021FB4805F089F94FF4007107
:101D5000F84805F084F94FF48071F64805F07FF9F2
:101D60004FF40071F34805F07CF9E9B2F04805F052
:101D70007FF98021EF4805F074F98021ED4805F0E6
:101D80006EF94FF40071EB4805F069F94FF480717A
:101D9000E84805F064F94FF40071E64805F061F990
:101DA0003912E34805F064F98021E24805F059F959
:101DB0008021E04805F053F94FF40071DD4805F04B
:101DC0004EF94FF48071DB4805F049F94FF400718A
:101DD000D84805F046F9F9B2D54805F049F980210F
:101DE000D44805F03EF98021D24805F038F94FF487
:101DF0000071D04805F033F953E1CF488088A0F551
:101E0000AA4110397DD1CC494889FEF75FFD4FF4D6
:101E10008071C84805F023F94FF40071C54805F0FA
:101E200020F92112C24805F023F98021C14805F0AC
:101E300018F98021BF4805F012F94FF40071BD4830
:101E400005F00DF9BC494989491C88B2FEF73EFDF1
:101E50004FF48071B74805F002F94FF40071B548AE
:101E600005F0FFF8E1B2B24805F002F98021B1486F
:101E700005F0F7F88021AF4805F0F1F84FF4007154
:101E8000AC4805F0ECF8AC494989891C88B2FEF7EA
:101E90001DFD4FF48071A74805F0E1F84FF4007183
:101EA000A44805F0DEF83112A14805F0E1F88021E0
:101EB000A04805F0D6F880219E4805F0D0F84FF4F0
:101EC00000719C4805F0CBF89B494989C91C88B230
:101ED000FEF7FCFC4FF48071964805F0C0F84FF413
:101EE0000071944805F0BDF8F1B2914805F0C0F8D2
:101EF0008021904805F0B5F880218E4805F0AFF8B4
:101F000000E087E04FF400718A4805F0A8F88A499C
:101F10008889FEF7DBFC4FF48071864805F09FF856
:101F20004FF40071834805F09CF82912804805F0B1
:101F30009FF880217F4805F094F880217D4805F0C6
:101F40008EF84FF400717B4805F089F87A49898949
:101F5000491C88B2FEF7BAFC4FF48071754805F051
:101F60007EF84FF40071734805F07BF8E9B27048D1
:101F700005F07EF880216F4805F073F880216D48E8
:101F800005F06DF84FF400716A4805F068F86A4989
:101F90008989891C88B2FEF799FC4FF480716548E5
:101FA00005F05DF84FF40071624805F05AF83912F7
:101FB0005F4805F05DF880215E4805F052F8802109
:101FC0005C4805F04CF84FF400715A4805F047F8AA
:101FD00059498989C91C88B2FEF778FC4FF4807191
:101FE000544805F03CF84FF40071524805F039F8B8
:101FF000F9B24F4805F03CF880214E4805F031F821
:1020000080214C4805F02BF84FF40071494805F049
:1020100026F846E04848807901280ED1A846B946FE
:1020200045480088801B401E80B2009042480088CE
:10203000001B401E1FFA80FB03E0A046B14600953E
:10204000BB463D488088A0F5094189390DD14FF044
:10205000440A4420039048EA09201FFA80F8C14648
:10206000452002904620019007E04FF0500A512091
:102070000390522002905320019041465046FEF7B3
:102080009CFC49460398FEF798FC00990298FEF7DD
:1020900094FC59460198FEF790FC29462046FEF72D
:1020A000E7FCBDE8FF9F70B504460026224805887E
:1020B0004088454320488088A0F5D041043916D196
:1020C0001D488079012812D100201B4988712A20DF
:1020D00048812B20888100210846FEF7C9FC012099
:1020E000154988712B2048812A20888103E000212E
:1020F0000846FEF7BDFCFEF78AFC002622E04FF4FE
:1021000080710C4804F0ABFF4FF40071094804F0F3
:10211000A8FF2146064804F0ABFF8021054804F0E3
:10212000A0FF8021034804F09AFF4FF4007105E0FE
:10213000000C014000100140A8030020FE4804F0FC
:102140008EFF761CAE42DAD370BD08B5012119208E
:1021500005F090F90121F94804F0A5FF4FF4F8606B
:10216000ADF8000010208DF8030003208DF8020068
:102170006946F14804F0C8FE4FF4F861EE4804F0F7
:102180006EFF4FF6FF70ADF800006946EC4804F0B2
:10219000BBFE4FF6FF71EA4804F061FF322004F005
:1021A0005FFD01210020FEF708FC322004F058FDFD
:1021B0000020FEF724FCE349888008468088FF2839
:1021C0000ADB08468088A0F57F41FF3904D0DD484E
:1021D0008088B0F5134F7CD1D320FEF777FBFEF754
:1021E000B1FBFEF7AFFBFEF7ADFBD6498880084692
:1021F00080884FF6FF7101EA0020D2498880FEF7FF
:10220000A1FBD04989880843CE4988800846808848
:10221000A0F5134141396CD0BF20FEF757FBFEF704
:1022200091FBFEF78FFBFEF78DFBFEF78BFBC5499D
:102230008880084680884FF6FF7101EA0020C14976
:102240008880FEF77FFBBF4989880843BD498880A5
:1022500008468088A0F5D04104394AD0D420FEF742
:1022600035FBFEF76FFBFEF76DFBFEF76BFBB54929
:102270008880084680884FF6FF7101EA0020B14946
:102280008880FEF75FFBAF4989880843AD498880A5
:1022900008468088A0F5A64110392AD04FF45A404C
:1022A000FEF714FBFEF74EFB4FF45B40FEF70EFB10
:1022B000FEF748FBA3498880084680884FF6FF71E7
:1022C00001EA00209F4988804FF45C40FEF7FEFA47
:1022D00000E00EE0FEF736FB9A49898808439949E9
:1022E000888008468088B0F5004F02D145F2105032
:1022F00088809448818894A00BF0CCFF9148808816
:10230000A0F5134141397CD1CF20FEF7DFFA002040
:10231000FEF7FAFAC120FEF7F7FA3020FEF7F4FADA
:10232000ED20FEF7D3FA6420FEF7EEFA0320FEF765
:10233000EBFA1220FEF7E8FA8120FEF7E5FAE82032
:10234000FEF7C4FA8520FEF7DFFA1020FEF7DCFA6C
:102350007A20FEF7D9FACB20FEF7B8FA3920FEF73B
:10236000D3FA2C20FEF7D0FA0020FEF7CDFA342065
:10237000FEF7CAFA0220FEF7C7FAF720FEF7A6FA20
:102380002020FEF7C1FAEA20FEF7A0FA0020FEF7AF
:10239000BBFA0020FEF7B8FAC020FEF797FA1B2020
:1023A000FEF7B2FAC120FEF791FA0120FEF7ACFA6F
:1023B000C520FEF78BFA3020FEF7A6FA3020FEF794
:1023C000A3FAC720FEF782FAB720FEF79DFA36205F
:1023D000FEF77CFA4820FEF797FA3A20FEF776FAE5
:1023E0005520FEF791FAB120FEF770FA0020FEF7B3
:1023F0008BFA1A20FEF788FAB620FEF767FA0A2051
:1024000000E0A9E0FEF780FAA220FEF77DFAF220B4
:10241000FEF75CFA0020FEF777FA2620FEF756FA60
:102420000120FEF771FAE020FEF750FA0F20FEF7C8
:102430006BFA2A20FEF768FA2820FEF765FA0820D2
:10244000FEF762FA0E20FEF75FFA0820FEF75CFA4C
:102450005420FEF759FAA920FEF756FA4320FEF75A
:1024600053FA0A20FEF750FA0F20FEF74DFA00202B
:10247000FEF74AFA0020FEF747FA0020FEF744FA7A
:102480000020FEF741FAE120FEF720FA0020FEF7D7
:102490003BFA1520FEF738FA1720FEF735FA072029
:1024A000FEF732FA1120FEF72FFA0620FEF72CFA7B
:1024B0002B20FEF729FA5620FEF726FA3C20FEF7DD
:1024C00023FA0520FEF720FA1020FEF71DFA0F2050
:1024D000FEF71AFA3F20FEF717FA3F20FEF714FA2C
:1024E0000F20FEF711FA2B20FEF7F0F90020FEF77F
:1024F0000BFA0020FEF708FA0120FEF705FA3F204C
:10250000FEF702FA2A20FEF7E1F90020FEF7FCF9B7
:102510000020FEF7F9F90020FEF7F6F9EF20FEF7AC
:10252000F3F91120FEF7D2F9782004F099FB292065
:10253000FEF7CCF903F008BB0010014000023000A8
:10254000000C0140A8030020204C43442049443A99
:1025500025780D0A00000000FE488088A0F5D041D3
:1025600004397CD11120FEF7B1F9142004F078FB76
:10257000D020FEF7ABF90720FEF7C6F94220FEF7A0
:10258000C3F91D20FEF7C0F9D120FEF79FF9002006
:10259000FEF7BAF91A20FEF7B7F90920FEF7B4F9E9
:1025A000D220FEF793F90120FEF7AEF92220FEF7C4
:1025B000ABF9C020FEF78AF91020FEF7A5F93B2001
:1025C000FEF7A2F90020FEF79FF90220FEF79CF922
:1025D0001120FEF799F9C520FEF778F90320FEF7E0
:1025E00093F9C820FEF772F90020FEF78DF9252037
:1025F000FEF78AF92120FEF787F90520FEF784F916
:102600000020FEF781F90A20FEF77EF96520FEF72B
:102610007BF92520FEF778F97720FEF775F9502031
:10262000FEF772F90F20FEF76FF90020FEF76CF944
:10263000F820FEF74BF90120FEF766F9FE20FEF7C1
:1026400045F90020FEF760F90220FEF75DF9202031
:10265000FEF73CF93620FEF739F9082000E02CE0BF
:10266000FEF752F93A20FEF731F95520FEF74CF902
:102670002B20FEF72BF90020FEF746F90020FEF78D
:1026800043F90120FEF740F93F20FEF73DF92A20EB
:10269000FEF71CF90020FEF737F90020FEF734F9A9
:1026A0000120FEF731F9DF20FEF72EF9782004F043
:1026B000D7FA2920FEF70AF93CE7A6488088A0F55A
:1026C000A641103940F07C87ED20FEF7FFF801208D
:1026D000FEF71AF9FE20FEF717F9EE20FEF7F6F8DE
:1026E000DE20FEF711F92120FEF70EF9F120FEF7AA
:1026F000EDF80120FEF708F9DF20FEF7E7F81020DB
:10270000FEF702F9C420FEF7E1F88F20FEF7FCF88F
:10271000C620FEF7DBF80020FEF7F6F8E220FEF711
:10272000F3F8E220FEF7F0F8E220FEF7EDF8BF2024
:10273000FEF7CCF8AA20FEF7E7F8B020FEF7C6F8BF
:102740000D20FEF7E1F80020FEF7DEF80D20FEF781
:10275000DBF80020FEF7D8F81120FEF7D5F80020AE
:10276000FEF7D2F81920FEF7CFF80020FEF7CCF8DC
:102770002120FEF7C9F80020FEF7C6F82D20FEF74D
:10278000C3F80020FEF7C0F83D20FEF7BDF800209A
:10279000FEF7BAF85D20FEF7B7F80020FEF7B4F8B0
:1027A0005D20FEF7B1F80020FEF7AEF8B120FEF78D
:1027B0008DF88020FEF7A8F80020FEF7A5F88B2002
:1027C000FEF7A2F80020FEF79FF89620FEF79CF88F
:1027D0000020FEF799F8B220FEF778F80020FEF707
:1027E00093F80020FEF790F80220FEF78DF8002005
:1027F000FEF78AF80320FEF787F80020FEF784F83A
:10280000B320FEF763F80020FEF77EF80020FEF705
:102810007BF80020FEF778F80020FEF775F800201E
:10282000FEF772F80020FEF76FF80020FEF76CF854
:102830000020FEF769F80020FEF766F80020FEF79A
:1028400063F80020FEF760F80020FEF75DF8002036
:10285000FEF75AF80020FEF757F80020FEF754F86C
:102860000020FEF751F80020FEF74EF80020FEF79A
:102870004BF80020FEF748F80020FEF745F800204E
:10288000FEF742F80020FEF73FF80020FEF73CF884
:102890000020FEF739F8B420FEF718F88B20FEF779
:1028A00033F80020FEF730F89620FEF72DF80020D0
:1028B000FEF72AF8A120FEF727F80020FEF724F8FB
:1028C000B520FEF703F80220FEF71EF80020FEF701
:1028D0001BF80320FEF718F80020FEF715F8042077
:1028E000FEF712F80020FEF70FF8B620FDF7EEFF16
:1028F0000020FEF709F80020FEF706F8B720FDF7E4
:10290000E5FF0020FEF700F80020FDF7FDFF3F2067
:10291000FDF7FAFF0020FDF7F7FF5E20FDF7F4FF5B
:102920000020FDF7F1FF6420FDF7EEFF0020FDF72A
:10293000EBFF8C20FDF7E8FF0020FDF7E5FFAC2062
:10294000FDF7E2FF0020FDF7DFFFDC20FDF7DCFFF5
:10295000002001E0A8030020FDF7D6FF7020FDF75E
:10296000D3FF0020FDF7D0FF9020FDF7CDFF002022
:10297000FDF7CAFFEB20FDF7C7FF0020FDF7C4FFFE
:10298000DC20FDF7C1FF0020FDF7BEFFB820FDF7FA
:102990009DFF0020FDF7B8FF0020FDF7B5FF0020E8
:1029A000FDF7B2FF0020FDF7AFFF0020FDF7ACFF01
:1029B0000020FDF7A9FF0020FDF7A6FF0020FDF78E
:1029C000A3FFBA20FDF782FF2420FDF79DFF002022
:1029D000FDF79AFF0020FDF797FF0020FDF794FF19
:1029E000C120FDF773FF2020FDF78EFF0020FDF7CB
:1029F0008BFF5420FDF788FF0020FDF785FFFF20A7
:102A0000FDF782FF0020FDF77FFFC220FDF75EFF8C
:102A10000A20FDF779FF0020FDF776FF0420FDF77F
:102A200073FF0020FDF770FFC320FDF74FFF3C2030
:102A3000FDF76AFF0020FDF767FF3A20FDF764FF0E
:102A40000020FDF761FF3920FDF75EFF0020FDF754
:102A50005BFF3720FDF758FF0020FDF755FF3C20B6
:102A6000FDF752FF0020FDF74FFF3620FDF74CFF2A
:102A70000020FDF749FF3220FDF746FF0020FDF75B
:102A800043FF2F20FDF740FF0020FDF73DFF2C20E6
:102A9000FDF73AFF0020FDF737FF2920FDF734FF4F
:102AA0000020FDF731FF2620FDF72EFF0020FDF767
:102AB0002BFF2420FDF728FF0020FDF725FF242011
:102AC000FDF722FF0020FDF71FFF2320FDF71CFF6D
:102AD0000020FDF719FF3C20FDF716FF0020FDF751
:102AE00013FF3620FDF710FF0020FDF70DFF322009
:102AF000FDF70AFF0020FDF707FF2F20FDF704FF79
:102B00000020FDF701FF2C20FDF7FEFE0020FDF761
:102B1000FBFE2920FDF7F8FE0020FDF7F5FE26203C
:102B2000FDF7F2FE0020FDF7EFFE2420FDF7ECFE9E
:102B30000020FDF7E9FE2420FDF7E6FE0020FDF76A
:102B4000E3FE2320FDF7E0FE0020FDF7DDFEC420BC
:102B5000FDF7BCFE6220FDF7D7FE0020FDF7D4FE96
:102B60000520FDF7D1FE0020FDF7CEFE8420FDF705
:102B7000CBFE0020FDF7C8FEF020FDF7C5FE0020CB
:102B8000FDF7C2FE1820FDF7BFFE0020FDF7BCFEDA
:102B9000A420FDF7B9FE0020FDF7B6FE1820FDF7D2
:102BA000B3FE0020FDF7B0FE5020FDF7ADFE002083
:102BB000FDF7AAFE0C20FDF7A7FE0020FDF7A4FEFE
:102BC0001720FDF7A1FE0020FDF79EFE9520FDF7E2
:102BD0009BFE0020FDF798FEF320FDF795FE0020F8
:102BE000FDF792FEE620FDF78FFE0020FDF78CFE3C
:102BF000C520FDF76BFE3220FDF786FE0020FDF7B5
:102C000083FE4420FDF780FE0020FDF77DFE652059
:102C1000FDF77AFE0020FDF777FE7620FDF774FEC3
:102C20000020FDF771FE8820FDF76EFE0020FDF705
:102C30006BFEC620FDF74AFE2020FDF765FE002052
:102C4000FDF762FE1720FDF75FFE0020FDF75CFE3A
:102C50000120FDF759FE0020FDF756FEC720FDF7C5
:102C600035FE0020FDF750FE0020FDF74DFE002050
:102C7000FDF74AFE0020FDF747FEC820FDF726FEBF
:102C80000020FDF741FE0020FDF73EFE0020FDF78D
:102C90003BFE0020FDF738FEC920FDF717FE00209F
:102CA000FDF732FE0020FDF72FFE0020FDF72CFE81
:102CB0000020FDF729FE0020FDF726FE0020FDF78D
:102CC00023FE0020FDF720FE0020FDF71DFE002062
:102CD000FDF71AFE0020FDF717FE0020FDF714FE99
:102CE0000020FDF711FE0020FDF70EFE0020FDF78D
:102CF0000BFE0020FDF708FE0020FDF705FEE0209A
:102D0000FDF7E4FD1620FDF7FFFD0020FDF7FCFDBB
:102D10001C20FDF7F9FD0020FDF7F6FD2120FDF751
:102D2000F3FD0020FDF7F0FD3620FDF7EDFD00205E
:102D3000FDF7EAFD4620FDF7E7FD0020FDF7E4FD85
:102D40005220FDF7E1FD0020FDF7DEFD6420FDF7D8
:102D5000DBFD0020FDF7D8FD7A20FDF7D5FD002032
:102D6000FDF7D2FD8B20FDF7CFFD0020FDF7CCFD58
:102D70009920FDF7C9FD0020FDF7C6FDA820FDF74D
:102D8000C3FD0020FDF7C0FDB920FDF7BDFD00200B
:102D9000FDF7BAFDC420FDF7B7FD0020FDF7B4FD37
:102DA000CA20FDF7B1FD0020FDF7AEFDD220FDF7F2
:102DB000ABFD0020FDF7A8FDD920FDF7A5FD002003
:102DC000FDF7A2FDE020FDF79FFD0020FDF79CFD33
:102DD000F320FDF799FD0020FDF796FDE120FDF7BA
:102DE00075FD1620FDF790FD0020FDF78DFD1C20E0
:102DF000FDF78AFD0020FDF787FD2220FDF784FD09
:102E00000020FDF781FD3620FDF77EFD0020FDF757
:102E10007BFD4520FDF778FD0020FDF775FD522074
:102E2000FDF772FD0020FDF76FFD6420FDF76CFDDE
:102E30000020FDF769FD7A20FDF766FD0020FDF713
:102E400063FD8B20FDF760FD0020FDF75DFD9920FF
:102E5000FDF75AFD0020FDF757FDA820FDF754FDB2
:102E60000020FDF751FDB920FDF74EFD0020FDF7D4
:102E70004BFDC420FDF748FD0020FDF745FDCA20AD
:102E8000FDF742FD0020FDF73FFDD220FDF73CFDA0
:102E90000020FDF739FDD820FDF736FD0020FDF7B5
:102EA00033FDE020FDF730FD0020FDF72DFDF32080
:102EB000FDF72AFD0020FDF727FDE220FDF706FDC6
:102EC0000520FDF721FD0020FDF71EFD0B20FDF77D
:102ED0001BFD0020FDF718FD1B20FDF715FD002050
:102EE000FDF712FD3420FDF70FFD0020FDF70CFD6E
:102EF0004420FDF709FD0020FDF706FD4F20FDF7FA
:102F000003FD0020FDF700FD6120FDF7FDFC002022
:102F1000FDF7FAFC7920FDF7F7FC0020FDF7F4FC43
:102F20008820FDF7F1FC0020FDF7EEFC9720FDF76F
:102F3000EBFC0020FDF7E8FCA620FDF7E5FC0020F7
:102F4000FDF7E2FCB720FDF7DFFC0020FDF7DCFC1D
:102F5000C220FDF7D9FC0020FDF7D6FCC720FDF705
:102F6000D3FC0020FDF7D0FCD120FDF7CDFC0020E4
:102F7000FDF7CAFCD620FDF7C7FC0020FDF7C4FC16
:102F8000DD20FDF7C1FC0020FDF7BEFCF320FDF7BE
:102F9000BBFC0020FDF7B8FCE320FDF797FC052003
:102FA000FDF7B2FC0020FDF7AFFC0A20FDF7ACFCFA
:102FB0000020FDF7A9FC1C20FDF7A6FC0020FDF772
:102FC000A3FC3320FDF7A0FC0020FDF79DFC44206E
:102FD000FDF79AFC0020FDF797FC5020FDF794FCCC
:102FE0000020FDF791FC6220FDF78EFC0020FDF72C
:102FF0008BFC7820FDF788FC0020FDF785FC8820FD
:10300000FDF782FC0020FDF77FFC9720FDF77CFC9C
:103010000020FDF779FCA620FDF776FC0020FDF7E7
:1030200073FCB720FDF770FC0020FDF76DFCC2209B
:10303000FDF76AFC0020FDF767FCC720FDF764FC84
:103040000020FDF761FCD120FDF75EFC0020FDF7BC
:103050005BFCD520FDF758FC0020FDF755FCDD207A
:10306000FDF752FC0020FDF74FFCF320FDF74CFC70
:103070000020FDF749FCE420FDF728FC0120FDF7C6
:1030800043FC0020FDF740FC0120FDF73DFC002043
:10309000FDF73AFC0220FDF737FC0020FDF734FC79
:1030A0002A20FDF731FC0020FDF72EFC3C20FDF727
:1030B0002BFC0020FDF728FC4B20FDF725FC002011
:1030C000FDF722FC5D20FDF71FFC0020FDF71CFC36
:1030D0007420FDF719FC0020FDF716FC8420FDF795
:1030E00013FC0020FDF710FC9320FDF70DFC0020E1
:1030F000FDF70AFCA220FDF707FC0020FDF704FC09
:10310000B320FDF701FC0020FDF7FEFBBE20FDF71C
:10311000FBFB0020FDF7F8FBC420FDF7F5FB0020CA
:10312000FDF7F2FBCD20FDF7EFFB0020FDF7ECFBF8
:10313000D320FDF7E9FB0020FDF7E6FBDD20FDF7DE
:10314000E3FB0020FDF7E0FBF320FDF7DDFB0020B3
:10315000FDF7DAFBE520FDF7B9FB0020FDF7D4FB16
:103160000020FDF7D1FB0020FDF7CEFB0020FDF78E
:10317000CBFB0220FDF7C8FB0020FDF7C5FB292093
:10318000FDF7C2FB0020FDF7BFFB3C20FDF7BCFBB9
:103190000020FDF7B9FB4B20FDF7B6FB0020FDF743
:1031A000B3FB5D20FDF7B0FB0020FDF7ADFB742005
:1031B000FDF7AAFB0020FDF7A7FB8420FDF7A4FB89
:1031C0000020FDF7A1FB9320FDF79EFB0020FDF7FB
:1031D0009BFBA220FDF798FB0020FDF795FBB32099
:1031E000FDF792FB0020FDF78FFBBE20FDF78CFB67
:1031F0000020FDF789FBC420FDF786FB0020FDF7CA
:1032000083FBCD20FDF780FB0020FDF77DFBD32065
:10321000FDF77AFB0020FDF777FBDC20FDF774FB60
:103220000020FDF771FBF320FDF76EFB0020FDF79A
:103230006BFBE620FDF74AFB1120FDF765FB002044
:10324000FDF762FB3420FDF75FFB0020FDF75CFB20
:103250005620FDF759FB0020FDF756FB7620FDF7C1
:1032600053FB0020FDF750FB7720FDF74DFB0020BE
:10327000FDF74AFB6620FDF747FB0020FDF744FB06
:103280008820FDF741FB0020FDF73EFB9920FDF76C
:103290003BFB0020FDF738FBBB20FDF735FB002092
:1032A000FDF732FB9920FDF72FFB0020FDF72CFBEB
:1032B0006620FDF729FB0020FDF726FB5520FDF7D2
:1032C00023FB0020FDF720FB5520FDF71DFB002010
:1032D000FDF71AFB4520FDF717FB0020FDF714FB57
:1032E0004320FDF711FB0020FDF70EFB4420FDF706
:1032F0000BFB0020FDF708FBE720FDF7E7FA322083
:10330000FDF702FB0020FDF7FFFA5520FDF7FCFA60
:103310000020FDF7F9FA7620FDF7F6FA0020FDF718
:10332000F3FA6620FDF7F0FA0020FDF7EDFA6720CA
:10333000FDF7EAFA0020FDF7E7FA6720FDF7E4FA67
:103340000020FDF7E1FA8720FDF7DEFA0020FDF707
:10335000DBFA9920FDF7D8FA0020FDF7D5FABB205B
:10336000FDF7D2FA0020FDF7CFFA9920FDF7CCFA4D
:103370000020FDF7C9FA7720FDF7C6FA0020FDF717
:10338000C3FA4420FDF7C0FA0020FDF7BDFA56202D
:10339000FDF7BAFA0020FDF7B7FA2320FDF7B4FADB
:1033A0000020FDF7B1FA3320FDF7AEFA0020FDF75B
:1033B000ABFA4520FDF7A8FA0020FDF7A5FAE820B2
:1033C000FDF784FA0020FDF79FFA0020FDF79CFA34
:1033D0009920FDF799FA0020FDF796FA8720FDF76E
:1033E00093FA0020FDF790FA8820FDF78DFA00206F
:1033F000FDF78AFA7720FDF787FA0020FDF784FAB7
:103400006620FDF781FA0020FDF77EFA8820FDF79F
:103410007BFA0020FDF778FAAA20FDF775FA002064
:10342000FDF772FABB20FDF76FFA0020FDF76CFA8A
:103430009920FDF769FA0020FDF766FA6620FDF78E
:1034400063FA0020FDF760FA5520FDF75DFA0020D1
:10345000FDF75AFA5520FDF757FA0020FDF754FA08
:103460004420FDF751FA0020FDF74EFA4420FDF705
:103470004BFA0020FDF748FA5520FDF745FA0020E9
:10348000FDF742FAE920FDF721FAAA20FDF73CFA00
:103490000020FDF739FA0020FDF736FA0020FDF78D
:1034A00033FA0020FDF712FAAA20FDF72DFACF20FB
:1034B000FDF70CFA0020FDF727FA0020FDF724FAAB
:1034C0000020FDF721FA0020FDF71EFA0020FDF78D
:1034D0001BFA0020FDF718FA0020FDF715FA00206E
:1034E000FDF712FA0020FDF70FFA0020FDF70CFAA5
:1034F0000020FDF709FA0020FDF706FA0020FDF78D
:1035000003FA0020FDF700FA0020FDF7FDF9002086
:10351000FDF7FAF90020FDF7F7F9F020FDF7D6F9ED
:103520000020FDF7F1F95020FDF7EEF90020FDF73E
:10353000EBF90020FDF7E8F90020FDF7E5F9F320AD
:10354000FDF7C4F90020FDF7DFF9F920FDF7BEF91A
:103550000620FDF7D9F91020FDF7D6F92920FDF74F
:10356000D3F90020FDF7D0F93A20FDF7AFF9552047
:10357000FDF7CAF91120FDF7A9F9642003F070FBEB
:103580002920FDF7A3F93520FDF7A0F90020FDF76C
:10359000BBF95120FDF79AF9FF20FDF7B5F953204B
:1035A000FDF794F92C20FDF7AFF95520FDF78EF9C2
:1035B0008220FDF7A9F92C20FDF788F902F0C4BAA2
:1035C000FE488088A0F5AA4110397DD155214FF4DD
:1035D0007040FDF7F2F9AA214FF20100FDF7EDF975
:1035E00052214FF20200FDF7E8F908214FF20300E3
:1035F000FDF7E3F901214FF20400FDF7DEF90D219B
:103600004FF43040FDF7D9F90D214BF20100FDF7E1
:10361000D4F90D214BF20200FDF7CFF934214FF41C
:103620003640FDF7CAF934214BF20160FDF7C5F9C8
:1036300034214BF20260FDF7C0F90D214FF4314007
:10364000FDF7BBF90D214BF20110FDF7B6F90D2185
:103650004BF20210FDF7B1F934214FF43740FDF77A
:10366000ACF934214BF20170FDF7A7F934214BF28C
:103670000270FDF7A2F900214FF43240FDF79DF9E9
:1036800000214BF20120FDF798F900214BF20220B6
:10369000FDF793F924214FF43840FDF78EF92421EA
:1036A0004BF60100FDF789F924214BF60200FDF7E6
:1036B00084F901214FF43F40FDF77FF90F214FF4CA
:1036C0003340FDF77AF900E0FDE30F214BF20130C2
:1036D000FDF773F90F214BF20230FDF76EF934213B
:1036E0004FF43940FDF769F934214BF60110FDF72D
:1036F00064F934214BF60210FDF75FF908214FF40D
:103700003540FDF75AF908214BF20150FDF755F904
:1037100008214BF20250FDF750F903214FF44240CB
:10372000FDF74BF924214FF43A40FDF746F92421E7
:103730004BF60120FDF741F924214BF60220FDF75D
:103740003CF900214FF43C40FDF737F978214BF666
:103750000140FDF732F900214BF60240FDF72DF94B
:1037600000214FF43D40FDF728F978214BF6015038
:10377000FDF723F900214BF60250FDF71EF9002159
:103780004FF43E40FDF719F964214BF60160FDF757
:1037900014F900214FF45140FDF70FF933214DF298
:1037A0000110FDF70AF900214DF20210FDF705F9AD
:1037B00034214DF20310FDF700F900214DF2041001
:1037C000FDF7FBF83A214DF20510FDF7F6F8002160
:1037D0004DF20610FDF7F1F84A214DF20710FDF702
:1037E000ECF800214DF20810FDF7E7F85C214DF2EE
:1037F0000910FDF7E2F800214DF20A10FDF7DDF89F
:1038000081214DF20B10FDF7D8F800214DF20C107C
:10381000FDF7D3F8A6214DF20D10FDF7CEF80021EB
:103820004DF20E10FDF7C9F8E5214DF20F10FDF72E
:10383000C4F801214DF21010FDF7BFF813214DF22D
:103840001110FDF7BAF801214DF21210FDF7B5F88D
:1038500054214DF21310FDF7B0F801214DF2141070
:10386000FDF7ABF882214DF21510FDF7A6F8012106
:103870004DF21610FDF7A1F8CA214DF21710FDF711
:103880009CF802214DF21810FDF797F800214DF237
:103890001910FDF792F802214DF21A10FDF78DF87C
:1038A00001214DF21B10FDF788F802214DF21C108A
:1038B000FDF783F834214DF21D10FDF77EF802214B
:1038C0004DF21E10FDF779F867214DF21F10FDF73C
:1038D00074F802214DF22010FDF76FF884214DF2AB
:1038E0002110FDF76AF802214DF22210FDF765F86C
:1038F000A4214DF22310FDF760F802214DF22410AF
:10390000FDF75BF8B7214DF22510FDF756F80221BF
:103910004DF22610FDF751F8CF214DF22710FDF79B
:103920004CF802214DF22810FDF747F8DE214DF248
:103930002910FDF742F802214DF22A10FDF73DF85B
:10394000F2214DF22B10FDF738F802214DF22C1028
:10395000FDF733F8FE214DF22D10FDF72EF803216F
:103960004DF22E10FDF729F810214DF22F10FDF722
:1039700024F803214DF23010FDF71FF833214DF2EA
:103980003110FDF71AF803214DF23210FDF715F84A
:103990006D214DF23310FDF710F800214FF4524025
:1039A000FDF70BF833214DF20120FDF706F8002159
:1039B0004DF20220FDF701F8342101E0A8030020B8
:1039C0004DF20320FCF7F9FF00214DF20420FCF733
:1039D000F4FF3A214DF20520FCF7EFFF00214DF2F4
:1039E0000620FCF7EAFF4A214DF20720FCF7E5FF2D
:1039F00000214DF20820FCF7E0FF5C214DF2092088
:103A0000FCF7DBFF00214DF20A20FCF7D6FF8121F5
:103A10004DF20B20FCF7D1FF00214DF20C20FCF7FA
:103A2000CCFFA6214DF20D20FCF7C7FF00214DF27F
:103A30000E20FCF7C2FFE5214DF20F20FCF7BDFF81
:103A400001214DF21020FCF7B8FF13214DF2112097
:103A5000FCF7B3FF01214DF21220FCF7AEFF542119
:103A60004DF21320FCF7A9FF01214DF21420FCF7C1
:103A7000A4FF82214DF21520FCF79FFF01214DF29A
:103A80001620FCF79AFFCA214DF21720FCF795FF8C
:103A900002214DF21820FCF790FF00214DF2192071
:103AA000FCF78BFF02214DF21A20FCF786FF012163
:103AB0004DF21B20FCF781FF02214DF21C20FCF788
:103AC0007CFF34214DF21D20FCF777FF02214DF2DF
:103AD0001E20FCF772FF67214DF21F20FCF76DFFDF
:103AE00002214DF22020FCF768FF84214DF22120B5
:103AF000FCF763FF02214DF22220FCF75EFFA421B8
:103B00004DF22320FCF759FF02214DF22420FCF74F
:103B100054FFB7214DF22520FCF74FFF02214DF253
:103B20002620FCF74AFFCF214DF22720FCF745FF66
:103B300002214DF22820FCF740FFDE214DF2292022
:103B4000FCF73BFF02214DF22A20FCF736FFF22161
:103B50004DF22B20FCF731FF02214DF22C20FCF717
:103B60002CFFFE214DF22D20FCF727FF03214DF203
:103B70002E20FCF722FF10214DF22F20FCF71DFF15
:103B800003214DF23020FCF718FF33214DF2312094
:103B9000FCF713FF03214DF23220FCF70EFF6D21DD
:103BA0004DF23320FCF709FF00214FF45340FCF79E
:103BB00004FF33214DF20130FCF7FFFE00214DF2EE
:103BC0000230FCF7FAFE34214DF20330FCF7F5FE2B
:103BD00000214DF20430FCF7F0FE3A214DF20530A1
:103BE000FCF7EBFE00214DF20630FCF7E6FE4A2121
:103BF0004DF20730FCF7E1FE00214DF20830FCF7F2
:103C0000DCFE5C214DF20930FCF7D7FE00214DF2BD
:103C10000A30FCF7D2FE81214DF20B30FCF7CDFECD
:103C200000214DF20C30FCF7C8FEA6214DF20D30FC
:103C3000FCF7C3FE00214DF20E30FCF7BEFEE5217D
:103C40004DF20F30FCF7B9FE01214DF21030FCF7B8
:103C5000B4FE13214DF21130FCF7AFFE01214DF2FD
:103C60001230FCF7AAFE54214DF21330FCF7A5FEEA
:103C700001214DF21430FCF7A0FE82214DF21530E7
:103C8000FCF79BFE01214DF21630FCF796FECA218F
:103C90004DF21730FCF791FE02214DF21830FCF77F
:103CA0008CFE00214DF21930FCF787FE02214DF207
:103CB0001A30FCF782FE01214DF21B30FCF77DFE2D
:103CC00002214DF21C30FCF778FE34214DF21D30FC
:103CD000FCF773FE02214DF21E30FCF76EFE6721E9
:103CE0004DF21F30FCF769FE02214DF22030FCF747
:103CF00064FE84214DF22130FCF75FFE02214DF27B
:103D00002230FCF75AFEA4214DF22330FCF755FE79
:103D100002214DF22430FCF750FEB7214DF2253040
:103D2000FCF74BFE02214DF22630FCF746FECF2178
:103D30004DF22730FCF741FE02214DF22830FCF70E
:103D40003CFEDE214DF22930FCF737FE02214DF218
:103D50002A30FCF732FEF2214DF22B30FCF72DFE1B
:103D600002214DF22C30FCF728FEFE214DF22D30C1
:103D7000FCF723FE03214DF22E30FCF71EFE10212E
:103D80004DF22F30FCF719FE03214DF23030FCF7D5
:103D900014FE33214DF23130FCF70FFE03214DF2BA
:103DA0003230FCF70AFE6D214DF23330FCF705FE90
:103DB00000214FF45440FCF700FE33214DF2014046
:103DC000FCF7FBFD00214DF20240FCF7F6FD34212B
:103DD0004DF20340FCF7F1FD00214DF20440FCF7E9
:103DE000ECFD3A214DF20540FCF7E7FD00214DF2D4
:103DF0000640FCF7E2FD4A214DF20740FCF7DDFDED
:103E000000214DF20840FCF7D8FD5C214DF209403D
:103E1000FCF7D3FD00214DF20A40FCF7CEFD8121D5
:103E20004DF20B40FCF7C9FD00214DF20C40FCF7B0
:103E3000C4FDA6214DF20D40FCF7BFFD00214DF25F
:103E40000E40FCF7BAFDE5214DF20F40FCF7B5FD41
:103E500001214DF21040FCF7B0FD13214DF211404D
:103E6000FCF7ABFD01214DF21240FCF7A6FD5421F9
:103E70004DF21340FCF7A1FD01214DF21440FCF777
:103E80009CFD82214DF21540FCF797FD01214DF27A
:103E90001640FCF792FDCA214DF21740FCF78DFD4C
:103EA00002214DF21840FCF788FD00214DF2194027
:103EB000FCF783FD02214DF21A40FCF77EFD012143
:103EC0004DF21B4000E006E3FCF777FD02214DF2C6
:103ED0001C40FCF772FD34214DF21D40FCF76DFDD6
:103EE00002214DF21E40FCF768FD67214DF21F4094
:103EF000FCF763FD02214DF22040FCF75EFD8421BA
:103F00004DF22140FCF759FD02214DF22240FCF711
:103F100054FDA4214DF22340FCF74FFD02214DF248
:103F20002440FCF74AFDB7214DF22540FCF745FD42
:103F300002214DF22640FCF740FDCF214DF22740F3
:103F4000FCF73BFD02214DF22840FCF736FDDE2157
:103F50004DF22940FCF731FD02214DF22A40FCF7D9
:103F60002CFDF2214DF22B40FCF727FD02214DF2F2
:103F70002C40FCF722FDFE214DF22D40FCF71DFDEB
:103F800003214DF22E40FCF718FD10214DF22F4079
:103F9000FCF713FD03214DF23040FCF70EFD3321F9
:103FA0004DF23140FCF709FD03214DF23240FCF7A0
:103FB00004FD6D214DF23340FCF7FFFC00214FF46E
:103FC0005540FCF7FAFC33214DF20150FCF7F5FCAB
:103FD00000214DF20250FCF7F0FC34214DF2035069
:103FE000FCF7EBFC00214DF20450FCF7E6FC3A2113
:103FF0004DF20550FCF7E1FC00214DF20650FCF7B4
:10400000DCFC4A214DF20750FCF7D7FC00214DF2B1
:104010000850FCF7D2FC5C214DF20950FCF7CDFCB6
:1040200000214DF20A50FCF7C8FC81214DF20B50E3
:10403000FCF7C3FC00214DF20C50FCF7BEFCA6219E
:104040004DF20D50FCF7B9FC00214DF20E50FCF77B
:10405000B4FCE5214DF20F50FCF7AFFC01214DF20D
:104060001050FCF7AAFC13214DF21150FCF7A5FCEF
:1040700001214DF21250FCF7A0FC54214DF21350D7
:10408000FCF79BFC01214DF21450FCF796FC8221B9
:104090004DF21550FCF791FC01214DF21650FCF742
:1040A0008CFCCA214DF21750FCF787FC02214DF21F
:1040B0001850FCF782FC00214DF21950FCF77DFCF2
:1040C00002214DF21A50FCF778FC01214DF21B50F1
:1040D000FCF773FC02214DF21C50FCF76EFC3421FE
:1040E0004DF21D50FCF769FC02214DF21E50FCF709
:1040F00064FC67214DF21F50FCF75FFC02214DF27A
:104100002050FCF75AFC84214DF22150FCF755FC5D
:1041100002214DF22250FCF750FCA4214DF2235015
:10412000FCF74BFC02214DF22450FCF746FCB72172
:104130004DF22550FCF741FC02214DF22650FCF7D0
:104140003CFCCF214DF22750FCF737FC02214DF209
:104150002850FCF732FCDE214DF22950FCF72DFCF3
:1041600002214DF22A50FCF728FCF2214DF22B508F
:10417000FCF723FC02214DF22C50FCF71EFCFE2123
:104180004DF22D50FCF719FC03214DF22E50FCF797
:1041900014FC10214DF22F50FCF70FFC03214DF2BF
:1041A0003050FCF70AFC33214DF23150FCF705FC8E
:1041B00003214DF23250FCF700FC6D214DF23350DB
:1041C000FCF7FBFB00214FF45640FCF7F6FB3321D4
:1041D0004DF20160FCF7F1FB00214DF20260FCF7AB
:1041E000ECFB34214DF20360FCF7E7FB00214DF2BC
:1041F0000460FCF7E2FB3A214DF20560FCF7DDFBC1
:1042000000214DF20660FCF7D8FB4A214DF2076011
:10421000FCF7D3FB00214DF20860FCF7CEFB5C21DC
:104220004DF20960FCF7C9FB00214DF20A60FCF772
:10423000C4FB81214DF20B60FCF7BFFB00214DF266
:104240000C60FCF7BAFBA6214DF20D60FCF7B5FB44
:1042500000214DF20E60FCF7B0FBE5214DF20F603E
:10426000FCF7ABFB01214DF21060FCF7A6FB13211C
:104270004DF21160FCF7A1FB01214DF21260FCF739
:104280009CFB54214DF21360FCF797FB01214DF28A
:104290001460FCF792FB82214DF21560FCF78DFB58
:1042A00001214DF21660FCF788FBCA214DF2176020
:1042B000FCF783FB02214DF21860FCF77EFB002126
:1042C0004DF21960FCF779FB02214DF21A60FCF700
:1042D00074FB01214DF21B60FCF76FFB02214DF2D4
:1042E0001C60FCF76AFB34214DF21D60FCF765FB96
:1042F00002214DF21E60FCF760FB67214DF21F604A
:10430000FCF75BFB02214DF22060FCF756FB842199
:104310004DF22160FCF751FB02214DF22260FCF7C7
:104320004CFBA4214DF22360FCF747FB02214DF228
:104330002460FCF742FBB7214DF22560FCF73DFB02
:1043400002214DF22660FCF738FBCF214DF22760A9
:10435000FCF733FB02214DF22860FCF72EFBDE2137
:104360004DF22960FCF729FB02214DF22A60FCF78F
:1043700024FBF2214DF22B60FCF71FFB02214DF2D2
:104380002C60FCF71AFBFE214DF22D60FCF715FBAB
:1043900003214DF22E60FCF710FB10214DF22F602F
:1043A000FCF70BFB03214DF23060FCF706FB3321D9
:1043B0004DF23160FCF701FB03214DF23260FCF756
:1043C000FCFA6D214DF23360FCF7F7FA55214FF4FA
:1043D0007040FCF7F2FAAA214FF20100FCF7EDFA67
:1043E00052214FF20200FCF7E8FA08214FF20300D5
:1043F000FCF7E3FA00214FF20400FCF7DEFACC21CF
:104400004FF43140FCF7D9FA00214BF20110FCF7D0
:10441000D4FA05214FF43640FCF7CFFA70214FF45F
:104420003740FCF7CAFA70214BF20170FCF7C5FA6D
:1044300001214FF43840FCF7C0FA03214BF601008C
:10444000FCF7BBFA03214BF60200FCF7B6FA032196
:104450004BF60300FCF7B1FA02214FF43C40FCF7A5
:10446000ACFA00214BF60140FCF7A7FA00214BF60D
:104470000240FCF7A2FAD0214FF44940FCF79DFA24
:1044800002214CF60110FCF798FA50214CF602106C
:10449000FCF793FA50214CF60310FCF78EFA5021EA
:1044A0004CF60410FCF789FA00214FF45450FCF745
:1044B00084FA55214FF46850FCF77FFA4FF4885086
:1044C000FCF704FA782002F0A8FB4FF42450FCF724
:1044D000FDF901F039BBFE488088A0F5134125396C
:1044E0007ED147F6F001E520FCF767FA4FF48071C2
:1044F0000120FCF762FA4FF4E0610220FCF75DFA5C
:1045000041F230010320FCF758FA00210420FCF7A7
:1045100054FA40F202210820FCF74FFA002109204A
:10452000FCF74BFA00210A20FCF747FA00210C2087
:10453000FCF743FA00210D20FCF73FFA00210F2081
:10454000FCF73BFA00211020FCF737FA0721112075
:10455000FCF733FA00211220FCF72FFA0021132078
:10456000FCF72BFA00210720FCF727FA41F29061B3
:104570001020FCF722FA40F227211120FCF71DFA47
:104580009D211220FCF719FA4FF4C8511320FCF7B3
:1045900014FA25212920FCF710FA0D212B20FCF715
:1045A0000CFA07213020FCF708FA40F203313120E1
:1045B000FCF703FA03213220FCF7FFF940F2062151
:1045C0003520FCF7FAF908213620FCF7F6F940F21D
:1045D00006413720FCF7F1F94FF44171382000E033
:1045E00057E0FCF7EAF907213920FCF7E6F940F239
:1045F00002613C20FCF7E1F908213D20FCF7DDF9E0
:1046000000215020FCF7D9F9EF215120FCF7D5F912
:1046100000215220FCF7D1F940F23F115320FCF762
:10462000CCF94FF427416020FCF7C7F90121612044
:10463000FCF7C3F900216A20FCF7BFF900218020B4
:10464000FCF7BBF900218120FCF7B7F9002182209B
:10465000FCF7B3F900218320FCF7AFF90021842097
:10466000FCF7ABF900218520FCF7A7F91021902079
:10467000FCF7A3F94FF4C0619220FCF79EF940F2D9
:1046800033110720FCF799F922210020FCF795F956
:104690001FE78F488088A0F5134128397ED141F269
:1046A0008F01EC20FCF789F941F23421EF20FCF76F
:1046B00084F94FF480710120FCF77FF94FF4E06139
:1046C0000220FCF77AF941F230010320FCF775F97A
:1046D00000210420FCF771F940F202210820FCF7C8
:1046E0006CF900210920FCF768F900210A20FCF789
:1046F00064F901210C20FCF760F900210D20FCF782
:104700005CF900210F20FCF758F900211020FCF77C
:1047100054F907211120FCF750F900211220FCF771
:104720004CF900211320FCF748F901210720FCF780
:1047300044F9322002F094FA41F290411020FCF743
:104740003CF940F227211120FCF737F9322002F022
:1047500087FA8A211220FCF730F9322002F080FA21
:104760004FF4D0511320FCF728F906212920FCF73B
:1047700024F90D212B20FCF720F9322002F070FAE9
:1047800000212020FCF719F900212120FCF715F960
:10479000322002F065FA0021302000E074E0FCF7DE
:1047A0000CF940F204613120FCF707F940F20531C1
:1047B0003220FCF702F900213520FCF7FEF840F624
:1047C00009413620FCF7F9F84FF401713720FCF766
:1047D000F4F840F201313820FCF7EFF840F20771AD
:1047E0003920FCF7EAF800213C20FCF7E6F840F617
:1047F0000A213D20FCF7E1F8322002F031FA0021D5
:104800005020FCF7DAF8EF215120FCF7D6F8002110
:104810005220FCF7D2F840F23F115320FCF7CDF8BC
:104820004FF427416020FCF7C8F801216120FCF714
:10483000C4F800216A20FCF7C0F800218020FCF7B2
:10484000BCF800218120FCF7B8F800218220FCF799
:10485000B4F800218320FCF7B0F800218420FCF795
:10486000ACF800218520FCF7A8F810219020FCF777
:10487000A4F84FF4C0619220FCF79FF840F2331186
:104880000720FCF79AF824E611488088A0F5134128
:1048900025397CD147F6F001E520FCF78EF84FF47E
:1048A00080710120FCF789F84FF4E0610220FCF7E9
:1048B00084F841F230010320FCF77FF80021042046
:1048C000FCF77BF840F202210820FCF776F801E0C3
:1048D000A803002000210920FCF76FF800210A201E
:1048E000FCF76BF800210C20FCF767F800210D2085
:1048F000FCF763F800210F20FCF75FF8002110207F
:10490000FCF75BF807211120FCF757F80021122073
:10491000FCF753F800211320FCF74FF80021072083
:10492000FCF74BF841F290611020FCF746F840F29A
:1049300027211120FCF741F89D211220FCF73DF8BA
:104940004FF4C8511320FCF738F825212920FCF733
:1049500034F80D212B20FCF730F807213020FCF72C
:104960002CF840F203313120FCF727F803213220E4
:10497000FCF723F840F206213520FCF71EF8082149
:104980003620FCF71AF840F20641372000E05CE0E0
:10499000FCF713F84FF441713820FCF70EF80721AB
:1049A0003920FCF70AF840F202613C20FCF705F8D8
:1049B00008213D20FCF701F800215020FBF7FDFF06
:1049C000EF215120FBF7F9FF00215220FBF7F5FF03
:1049D00040F23F115320FBF7F0FF4FF427416020D6
:1049E000FBF7EBFF01216120FBF7E7FF00216A20C5
:1049F000FBF7E3FF00218020FBF7DFFF0021812090
:104A0000FBF7DBFF00218220FBF7D7FF002183208B
:104A1000FBF7D3FF00218420FBF7CFFF0021852087
:104A2000FBF7CBFF10219020FBF7C7FF4FF4C061CD
:104A30009220FBF7C2FF40F233110720FBF7BDFFC6
:104A400022210020FBF7B9FF43E5FE488088A0F54E
:104A5000134128397ED141F28F01EC20FBF7ADFFE5
:104A600041F23421EF20FBF7A8FF4FF480710120C1
:104A7000FBF7A3FF4FF4E0610220FBF79EFF41F23A
:104A800030010320FBF799FF00210420FBF795FF7D
:104A900040F202210820FBF790FF00210920FBF7DC
:104AA0008CFF00210A20FBF788FF01210C20FBF777
:104AB00084FF00210D20FBF780FF00210F20FBF772
:104AC0007CFF00211020FBF778FF07211120FBF766
:104AD00074FF00211220FBF770FF00211320FBF769
:104AE0006CFF01210720FBF768FF322002F0B8F8C5
:104AF00041F290411020FBF760FF40F22721112086
:104B0000FBF75BFF322002F0ABF88A211220FBF7A3
:104B100054FF322002F0A4F84FF4D0511320FBF7D9
:104B20004CFF06212920FBF748FF0D212B20FBF726
:104B300044FF322002F094F800212020FBF73DFFD3
:104B400000212120FBF739FF322002F089F80021F3
:104B5000302000E074E0FBF730FF40F204613120C8
:104B6000FBF72BFF40F205313220FBF726FF002137
:104B70003520FBF722FF40F609413620FBF71DFFE9
:104B80004FF401713720FBF718FF40F20131382054
:104B9000FBF713FF40F207713920FBF70EFF0021EE
:104BA0003C20FBF70AFF40F60A213D20FBF705FFFA
:104BB000322002F055F800215020FBF7FEFEEF21D5
:104BC0005120FBF7FAFE00215220FBF7F6FE40F2DF
:104BD0003F115320FBF7F1FE4FF427416020FBF714
:104BE000ECFE01216120FBF7E8FE00216A20FBF7C3
:104BF000E4FE00218020FBF7E0FE00218120FBF78E
:104C0000DCFE00218220FBF7D8FE00218320FBF789
:104C1000D4FE00218420FBF7D0FE00218520FBF785
:104C2000CCFE10219020FBF7C8FE4FF4C06192200B
:104C3000FBF7C3FE40F233110720FBF7BEFE48E44A
:104C400080488088A0F5134120397DD10846FBF7C4
:104C5000B4FE4FF480710120FBF7AFFE4FF4E0612A
:104C60000220FBF7AAFE41F230010320FBF7A5FE6C
:104C700000210420FBF7A1FE40F202210820FBF7EF
:104C80009CFE00210920FBF798FE00210A20FBF77B
:104C900094FE01210C20FBF790FE00210D20FBF774
:104CA0008CFE00210F20FBF788FE322001F0D8FF98
:104CB00040F201110720FBF780FE322001F0D0FF07
:104CC0004FF486511020FBF778FE07211120FBF7E7
:104CD00074FE4FF488711220FBF76FFE4FF43061C1
:104CE0001320FBF76AFE00212920FBF766FE44F241
:104CF00010012B20FBF761FE00215020FBF75DFE29
:104D0000EF215120FBF759FE00215220FBF755FE01
:104D100040F23F115320FBF750FE4FF41C5160202E
:104D2000FBF74BFE01216120FBF747FE00216A20C3
:104D3000FBF743FE00218020FBF73FFE002181208E
:104D4000FBF73BFE002100E02DE08220FBF735FE63
:104D500000218320FBF731FE00218420FBF72DFE8C
:104D600000218520FBF729FE10219020FBF725FE6E
:104D700000219220FBF721FE01219320FBF71DFE6D
:104D80004FF488719520FBF718FE00219720FBF760
:104D900014FE00219820FBF710FE40F2731107204B
:104DA000FBF70BFE74E427488088A0F513413139E6
:104DB0007DD141F21401E720FBF7FFFD4FF4807134
:104DC0000120FBF7FAFD4FF400710220FBF7F5FD1F
:104DD00041F238010320FBF7F0FD40F202210820E8
:104DE000FBF7EBFD00210920FBF7E7FD00210A207E
:104DF000FBF7E3FD00210C20FBF7DFFD00210D2078
:104E0000FBF7DBFD00210F20FBF7D7FD0021102071
:104E1000FBF7D3FD07211120FBF7CFFD0021122066
:104E2000FBF7CBFD00211320FBF7C7FDC82001F0E5
:104E300017FF41F290611020FBF7BFFD40F22721E0
:104E4000112001E0A8030020FBF7B7FD322001F09C
:104E500007FF0C211220FBF7B0FD322001F000FF0C
:104E60004FF400611320FBF7A8FD11212920FBF767
:104E7000A4FD0B212B20FBF7A0FD322001F0F0FE5A
:104E800000212020FBF799FD40F23F112120FBF784
:104E900094FD00213020FBF790FD4FF48371312009
:104EA000FBF78BFD00213220FBF787FD00E067E078
:104EB0004FF401713520FBF780FD41F20A61362085
:104EC000FBF77BFD40F207713720FBF776FD4FF4CF
:104ED00083713820FBF771FD40F207713920FBF731
:104EE0006CFD40F202413C20FBF767FD40F60F41AC
:104EF0003D20FBF762FD00215020FBF75EFDEF2116
:104F00005120FBF75AFD00215220FBF756FD40F2DD
:104F10003F115320FBF751FD4FF41C516020FBF76C
:104F20004CFD01216120FBF748FD00216A20FBF7C1
:104F300044FD00218020FBF740FD00218120FBF78C
:104F40003CFD00218220FBF738FD00218320FBF788
:104F500034FD00218420FBF730FD00218520FBF784
:104F60002CFD10219020FBF728FD4FF4C06192200A
:104F7000FBF723FD40F233110720FBF71EFD82E40F
:104F8000FE488088A0F5A84108397DD14FF4807192
:104F90000120FBF712FD4FF4E0610220FBF70DFD4D
:104FA00041F230010320FBF708FD00210420FBF74C
:104FB00004FD40F207210820FBF7FFFC0021092037
:104FC000FBF7FBFC00210A20FBF7F7FC00210C207B
:104FD000FBF7F3FC00210D20FBF7EFFC00210F2075
:104FE000FBF7EBFC142001F03BFE41F2B061102016
:104FF000FBF7E3FC01211120FBF7DFFC0121172067
:10500000FBF7DBFC4FF49C711220FBF7D6FC4FF44E
:1050100000611320FBF7D1FC09212920FBF7CDFC0F
:1050200009212A20FBF7C9FC0021A420FBF7C5FCBD
:1050300000215020FBF7C1FCEF215120FBF7BDFC04
:1050400000215220FBF7B9FC40F23F115320FBF73F
:10505000B4FC4FF41C516020FBF7AFFC0121612030
:10506000FBF7ABFC00216A20FBF7A7FC00218020A6
:10507000FBF7A3FC00218120FBF79FFC002182208D
:10508000FBF79BFC002100E024E08320FBF795FC6C
:1050900000218420FBF791FC00218520FBF78DFC8B
:1050A00013219020FBF789FC00219220FBF785FC5F
:1050B00003219320FBF781FC4FF488719520FBF7C7
:1050C0007CFC40F273110720FBF777FC322001F0E3
:1050D000C7FDB9E4A9488088A0F5A85105397DD15C
:1050E0000720FBF76AFC322001F0BAFD4FF48E7105
:1050F0001220FBF762FC0121A420FBF75EFC0F21CC
:105100000820FBF75AFC08210A20FBF756FC08216F
:105110000D20FBF752FC40F207713020FBF74DFCED
:1051200007213120FBF749FC40F203613220FBF7F5
:1051300044FC4FF4E0613320FBF73FFC40F20221D6
:105140003420FBF73AFC02213520FBF736FC41F610
:105150000F713620FBF731FC40F207713720FBF767
:105160002CFC00213820FBF728FC00213920FBF71C
:1051700024FC40F207713A20FBF71FFC00213B2082
:10518000FBF71BFC07213C20FBF717FC00213D200F
:10519000FBF713FC322001F063FD01210720FBF730
:1051A0000CFC01211720FBF708FC322001F058FD10
:1051B0004FF4BD511020FBF700FC40F217211120E5
:1051C000FBF7FBFB4FF48F711220FBF7F6FB4FF45C
:1051D00070611320FBF7F1FB002100E094E02A202E
:1051E000FBF7EBFB0A212920FBF7E7FB4FF49F714C
:1051F0001220FBF7E2FB00215020FBF7DEFBEF2142
:105200005120FBF7DAFB00215220FBF7D6FB40F2DE
:105210003F115320FBF7D1FB4FF41C516020FBF7EB
:10522000CCFB01216120FBF7C8FB00216A20FBF7C2
:10523000C4FB00218020FBF7C0FB00218120FBF78D
:10524000BCFB00218220FBF7B8FB00218320FBF789
:10525000B4FB00218420FBF7B0FB00218520FBF785
:10526000ACFB13219020FBF7A8FB4FF44071922078
:10527000FBF7A3FB05219320FBF79FFB0021952063
:10528000FBF79BFB00219720FBF797FB0021982061
:10529000FBF793FB4FF480710120FBF78EFB4FF47B
:1052A000E0610220FBF789FB41F238010320FBF7A4
:1052B00084FB00210420FBF780FB00210C20FBF77E
:1052C0007CFB00210F20FBF778FB00212020FBF75F
:1052D00074FB00212120FBF770FB21210720FBF745
:1052E0006CFB142001F0BCFC61210720FBF765FB7F
:1052F000142001F0B5FC40F273110720FBF75DFBB1
:10530000142001F0ADFC9AE41C488088A0F53541DA
:1053100005397CD10846FBF750FB00210846FBF716
:105320004CFB00210846FBF748FB00210846FBF731
:1053300044FB0121A420FBF740FB142001F090FC6A
:105340004FF41C516020FBF738FB40F2022108208B
:10535000FBF733FB4FF405713020FBF72EFB43F2D4
:1053600015713120FBF729FB40F204613220FBF775
:1053700024FB40F61661332002E00000A803002061
:10538000FBF71BFB42F211213420FBF716FB4FF415
:10539000A8513520FBF711FB48F207513620FBF7E7
:1053A0000CFB41F207413720FBF707FB41F20341B9
:1053B0003820FBF702FB20213920FBF7FEFA1A21E7
:1053C0009020FBF7FAFA00211020FBF7F6FA0721EC
:1053D0001120FBF7F2FA00211220FBF7EEFA002170
:1053E0001320FBF7EAFA142001F03AFC4FF4E661CF
:1053F0001020FBF7E2FA40F237111120FBF7DDFA3B
:10540000142001F02DFC4FF4DC71122000E088E044
:10541000FBF7D3FA142001F023FC4FF47061132042
:10542000FBF7CBFA80212A20FBF7C7FA4821292075
:10543000FBF7C3FA142001F013FC4FF48071012034
:10544000FBF7BBFA4FF4E0610220FBF7B6FA41F23A
:1054500038010320FBF7B1FA40F202210820FBF7E4
:10546000ACFA00210A20FBF7A8FA00210C20FBF778
:10547000A4FA00210D20FBF7A0FA30210E20FBF743
:105480009CFA00215020FBF798FAEF215120FBF7FE
:1054900094FA00215220FBF790FA40F23F1153207A
:1054A000FBF78BFA4FF41C516020FBF786FA0121C1
:1054B0006120FBF782FA00216A20FBF77EFA1121B6
:1054C0009020FBF77AFA4FF4C0619220FBF775FA4F
:1054D00040F202419320FBF770FA02219420FBF77F
:1054E0006CFA142001F0BCFB01210720FBF765FAE0
:1054F000142001F0B5FB61210720FBF75EFA40F2B2
:1055000073110720FBF759FA00212020FBF755FA09
:1055100000212120FBF751FA22210020FBF74DFA50
:1055200012E3FE488088A0F5454105397DD1084643
:10553000FBF743FA00210846FBF73FFA142001F07D
:105540008FFB00210846FBF738FA00210846FBF7DD
:1055500034FA00210846FBF730FA00210846FBF731
:105560002CFA0121A420FBF728FA142001F078FB83
:105570004FF41C516020FBF720FA40F6060108208A
:10558000FBF71BFA40F203713020FBF716FA0121FA
:105590003120FBF712FA04213220FBF70EFA4FF408
:1055A00081713320FBF709FA4FF440713420FBF787
:1055B00004FA40F203113520FBF7FFF91F213620D2
:1055C000FBF7FBF940F203713720FBF7F6F90121F5
:1055D0003820FBF7F2F904213920FBF7EEF9152109
:1055E0009020FBF7EAF94FF482611020FBF7E5F910
:1055F00040F247211120FBF7E0F94FF4DE71122051
:10560000FBF7DBF94FF460611320FBF7D6F9782044
:1056100001F026FB4FF480710120FBF7CEF94FF427
:1056200000710220FBF7C9F900E050E041F23001BF
:105630000320FBF7C2F908210A20FBF7BEF900217D
:105640000C20FBF7BAF920210E20FBF7B6F9002158
:105650000F20FBF7B2F900212020FBF7AEF9002163
:105660002120FBF7AAF93D212A20FBF7A6F91420F7
:1056700001F0F6FA2D212920FBF79FF90021502097
:10568000FBF79BF94DF2EF015120FBF796F9002152
:105690005220FBF792F940F23F115320FBF78DF9AE
:1056A00000216120FBF789F900216A20FBF785F9C9
:1056B0004FF440719220FBF780F905219320FBF70E
:1056C0007CF94FF480710720FBF777F93CE29348AF
:1056D0008088A0F5094189397DD101210020FBF79F
:1056E0006CF94AF6A4010320FBF767F900210C20AE
:1056F000FBF763F940F60C010D20FBF75EF94FF460
:105700002C510E20FBF759F9B0211E20FBF755F95B
:1057100042F63F310120FBF750F94FF4C0610220FF
:10572000FBF74BF900211020FBF747F946F278010F
:105730001120FBF742F900210520FBF73EF900217B
:105740000620FBF73AF94EF61C711620FBF735F9E7
:1057500003211720FBF731F940F233210720FBF733
:105760002CF900210B20FBF728F900210F20FBF773
:1057700024F900214120FBF720F900214220FBF70A
:105780001CF900214820FBF718F940F23F1149208D
:10579000FBF713F900214A20FBF70FF900214B20FA
:1057A000FBF70BF94FF46F414420FBF706F900219A
:1057B0004520FBF702F940F23F114620FBF7FDF8C8
:1057C00040F207713020FBF7F8F84FF401713120F7
:1057D000FBF7F3F800E03DE04FF401713220FBF7F6
:1057E000ECF840F202513320FBF7E7F840F20751A2
:1057F0003420FBF7E2F84FF401713520FBF7DDF8B8
:105800004FF401713620FBF7D8F840F202513720EF
:10581000FBF7D3F840F202313A20FBF7CEF840F222
:1058200002313B20FBF7C9F800212320FBF7C5F824
:1058300000212420FBF7C1F84FF400412520FBF79D
:10584000BCF800214F20FBF7B8F800214E20FBF7F1
:10585000B4F879E131488088A0F58A4131397CD1AA
:1058600001210020FBF7A9F80A2001F0F9F941F223
:1058700028611020FBF7A1F80E211220FBF79DF8FC
:1058800040F639211320FBF798F80A2001F0E8F9D7
:1058900040211120FBF791F850211520FBF78DF8DE
:1058A0000A2001F0DDF91E211220FBF786F80A20FC
:1058B00001F0D6F94FF4B1511020FBF77EF842F613
:1058C00039211320FBF779F80A2001F0C9F94FF4C8
:1058D00080710120FBF771F84FF440710220FBF753
:1058E0006CF841F238010320FBF767F840F202211F
:1058F0000820FBF762F808210A20FBF75EF8002178
:105900003020FBF75AF840F202413120FBF755F8FE
:105910004FF483713220FBF750F801E0A803002018
:1059200040F203513320FBF748F84FF482713420E2
:10593000FBF743F840F201313520FBF73EF840F227
:1059400007713620FBF739F840F205313720FBF7B5
:1059500034F84FF40271382000E040E0FBF72DF8F6
:1059600040F60B713920FBF728F802214120FBF7A4
:1059700024F84FF41C516020FBF71FF8012161202F
:10598000FBF71BF84FF404719020FBF716F84FF467
:1059900085719220FBF711F804219320FBF70DF895
:1059A0004FF48071A020FBF708F801210720FBF7D6
:1059B00004F821210720FBF700F823210720FAF73C
:1059C000FCFF33210720FAF7F8FF40F233110720DC
:1059D000FAF7F3FF0021A020FAF7EFFFB4E0F74851
:1059E0008088A0F58A413539F8D130211520FAF7A1
:1059F000E4FF10219A20FAF7E0FF20211120FAF7A6
:105A0000DCFF43F228411020FAF7D7FF02211220D1
:105A1000FAF7D3FF41F238011320FAF7CEFF28201E
:105A200001F01EF912210846FAF7C7FF282001F0FD
:105A300017F943F220411020FAF7BFFF43F2380173
:105A40001320FAF7BAFF462001F00AF900213020AE
:105A5000FAF7B3FF40F202413120FAF7AEFF40F20D
:105A600007313220FAF7A9FF4FF441713320FAF7DA
:105A7000A4FF04213420FAF7A0FF40F201413520B1
:105A8000FAF79BFF40F207713620FAF796FF40F2D3
:105A900005313720FAF791FF4FF4C2613820FAF749
:105AA0008CFF4FF4C2613920FAF787FF4FF4807101
:105AB0000120FAF782FF4FF440710220FAF77DFFD0
:105AC00041F230010320FAF778FF40F60801082080
:105AD000FAF773FF08210A20FAF76FFF4FF41C5101
